[{
  "txid": "28ac147d83a543c27f796a51debd63936a6b80f8f6d298840441c468f64ba339",
  "hash": "28ac147d83a543c27f796a51debd63936a6b80f8f6d298840441c468f64ba339",
  "version": 2,
  "size": 371,
  "vsize": 371,
  "weight": 1484,
  "locktime": 0,
  "vin": [
    {
      "txid": "2258e6c91bbe71760a246f883fff39798dd1ab9ebdb3cdfc0f8431aa674277ec",
      "vout": 0,
      "scriptSig": {
        "asm": "0 3045022100de9971ad9edbf07725f186e35bb2f494e202b42f6cc8f4f20bb00f88dddaef6e0220447cc3a6e3cde7140767a358c3073899a145fa2d618edf8aac052b4617766b79[ALL] 304402201964730e5ba682064cc45464e71d250357620ae2af7540c1c72e91efb5f65ee40220420dad875996ce076420149babbd2c0e81d6330aaec0b72f1c41805602ad065b[ALL] 522103745c9aceb84dcdeddf2c3cdc1edb0b0b5af2f9bf85612d73fa6394758eaee35d21027efbabf425077cdbceb73f6681c7ebe2ade74a65ea57ebcf0c42364d3822c59021023a11cfcedb993ff2e7523f92e359c4454072a66d42e8b74b4b27a8a1258abddd2102e9d617f38f8c3ab9a6bde36ce991bafb295d7adba457699f8620c8160ec9e87a54ae",
        "hex": "00483045022100de9971ad9edbf07725f186e35bb2f494e202b42f6cc8f4f20bb00f88dddaef6e0220447cc3a6e3cde7140767a358c3073899a145fa2d618edf8aac052b4617766b790147304402201964730e5ba682064cc45464e71d250357620ae2af7540c1c72e91efb5f65ee40220420dad875996ce076420149babbd2c0e81d6330aaec0b72f1c41805602ad065b014c8b522103745c9aceb84dcdeddf2c3cdc1edb0b0b5af2f9bf85612d73fa6394758eaee35d21027efbabf425077cdbceb73f6681c7ebe2ade74a65ea57ebcf0c42364d3822c59021023a11cfcedb993ff2e7523f92e359c4454072a66d42e8b74b4b27a8a1258abddd2102e9d617f38f8c3ab9a6bde36ce991bafb295d7adba457699f8620c8160ec9e87a54ae"
      },
      "sequence": 4294967295
    }
  ],
  "vout": [
    {
      "value": 0.99900000,
      "n": 0,
      "scriptPubKey": {
        "asm": "0 0b85d9b75f55ad9d42ea2ae9a245568ca34932f6",
        "hex": "00140b85d9b75f55ad9d42ea2ae9a245568ca34932f6",
        "reqSigs": 1,
        "type": "witness_v0_keyhash",
        "addresses": [
          "bcrt1qpwzand6l2kke6sh29t56y32k3j35jvhkrn9s5l"
        ]
      }
    }
  ],
  "hex": "0200000001ec774267aa31840ffccdb3bd9eabd18d7939ff3f886f240a7671be1bc9e6582200000000fd1f0100483045022100de9971ad9edbf07725f186e35bb2f494e202b42f6cc8f4f20bb00f88dddaef6e0220447cc3a6e3cde7140767a358c3073899a145fa2d618edf8aac052b4617766b790147304402201964730e5ba682064cc45464e71d250357620ae2af7540c1c72e91efb5f65ee40220420dad875996ce076420149babbd2c0e81d6330aaec0b72f1c41805602ad065b014c8b522103745c9aceb84dcdeddf2c3cdc1edb0b0b5af2f9bf85612d73fa6394758eaee35d21027efbabf425077cdbceb73f6681c7ebe2ade74a65ea57ebcf0c42364d3822c59021023a11cfcedb993ff2e7523f92e359c4454072a66d42e8b74b4b27a8a1258abddd2102e9d617f38f8c3ab9a6bde36ce991bafb295d7adba457699f8620c8160ec9e87a54aeffffffff01605af405000000001600140b85d9b75f55ad9d42ea2ae9a245568ca34932f600000000"

},
{

  "txid": "03e9e0243fb5d8ca01240750e1db15b72bba302388e76c4c8726c058a15b292e",

  "hash": "03e9e0243fb5d8ca01240750e1db15b72bba302388e76c4c8726c058a15b292e",

  "version": 2,

  "size": 187,

  "vsize": 187,

  "weight": 748,

  "locktime": 198,

  "vin": [

    {

      "txid": "3ee66d2e451ad5e8ed88b9bd0e216ce7eae6d79bc0cb0b4fa657909c6f81ef28",

      "vout": 0,

      "scriptSig": {

        "asm": "304402203dd43ea509c4c1d230b746a2b55a0e0aa7dd547c9111fd5ba86918f09a4ddb5a02201b2f10879348b8f19f77fb6cc9f31abce0b6646a879896b6978376265bc1aee8[ALL]",

        "hex": "47304402203dd43ea509c4c1d230b746a2b55a0e0aa7dd547c9111fd5ba86918f09a4ddb5a02201b2f10879348b8f19f77fb6cc9f31abce0b6646a879896b6978376265bc1aee801"

      },

      "sequence": 4294967293

    }

  ],

  "vout": [

    {

      "value": 48.99996260,

      "n": 0,

      "scriptPubKey": {

        "asm": "OP_HASH160 7d9cba3ae06aef07f3d26f7192750baec3a4df9c OP_EQUAL",

        "hex": "a9147d9cba3ae06aef07f3d26f7192750baec3a4df9c87",

        "reqSigs": 1,

        "type": "scripthash",

        "addresses": [

          "2N4hQCsreiDzDAzLhAjkFPdrFVt166MexwY"

        ]

      }

    },

    {

      "value": 1.00000000,

      "n": 1,

      "scriptPubKey": {

        "asm": "OP_HASH160 9c7d1d4a371634286f4437f7f8a38021ffbb7ca0 OP_EQUAL",

        "hex": "a9149c7d1d4a371634286f4437f7f8a38021ffbb7ca087",

        "reqSigs": 1,

        "type": "scripthash",

        "addresses": [

          "2N7WfHK1ftrTdhWej8rnFNR7guhvhfGWwFR"

        ]

      }

    }

  ],

  "hex": "020000000128ef816f9c9057a64f0bcbc09bd7e6eae76c210ebdb988ede8d51a452e6de63e000000004847304402203dd43ea509c4c1d230b746a2b55a0e0aa7dd547c9111fd5ba86918f09a4ddb5a02201b2f10879348b8f19f77fb6cc9f31abce0b6646a879896b6978376265bc1aee801fdffffff02640210240100000017a9147d9cba3ae06aef07f3d26f7192750baec3a4df9c8700e1f5050000000017a9149c7d1d4a371634286f4437f7f8a38021ffbb7ca087c6000000"

}

]